:1007E00000660000000B000053160000000000002F
:1007F00000000000000000000000000000000000F9
:100800000228E812156422D2AF32000220F9D2AFDA
:100810003200000230720231860000020807000038
:10082000000000021C9A000000000002080EE70908
:10083000F608DFFA8046E709F208DFFA803E888290
:100840008C83E709F0A3DFFA8032E309F608DFFAC8
:100850008078E309F208DFFA807088828C83E309EC
:10086000F0A3DFFA806489828A83E0A3F608DFFAC6
:10087000805889828A83E0A3F208DFFA804C80D214
:1008800080FA80C680D4806980F28033801080A690
:1008900080EA809A80A880DA80E280CA80338982E8
:1008A0008A83ECFAE493A3C8C582C8CCC583CCF094
:1008B000A3C8C582C8CCC583CCDFE9DEE7800D893B
:1008C000828A83E493A3F608DFF9ECFAA9F0EDFB42
:1008D0002289828A83ECFAE0A3C8C582C8CCC5838A
:1008E000CCF0A3C8C582C8CCC583CCDFEADEE880E3
:1008F000DB89828A83E493A3F208DFF980CC88F055
:10090000EF60010E4E60C388F0ED2402B404005085
:10091000B9F582EB2402B4040050AF2323458223AF
:1009200090087E73EF8DF0A4A8F0CF8CF0A428CEB1
:100930008DF0A42EFE22C2D5EC30E709B2D5E4C377
:100940009DFDE49CFCEE30E715B2D5E4C39FFFE4C7
:100950009EFE120BB5C3E49DFDE49CFC8003120BCC
:10096000B530D507C3E49FFFE49EFE22C5F0F8A38F
:10097000E028F0C5F0F8E582158270021583E038B2
:10098000F022BB010A89828A83E0F5F0A3E02250BD
:100990000687F009E71922BBFE07E3F5F009E31922
:1009A0002289828A83E493F5F074019322BB0107C4
:1009B00089828A8302096C500B09C5F027F7C5F0BC
:1009C0001937F722BBFE0D09F8E325F0F3C5F0193E
:1009D000E338F322F889828A8374019325F0C5F005
:1009E000F8E4933822BB010A89828A83F0E5F0A3F8
:1009F000F0225006F709A7F01922BBFE06F3E5F036
:100A000009F3192275F008758200EF2FFFEE33FE0F
:100A1000CD33CDCC33CCC58233C5829BED9AEC99D6
:100A2000E58298400CF582EE9BFEED9AFDEC99FC78
:100A30000FD5F0D6E4CEFBE4CDFAE4CCF9A88222BF
:100A4000B800C1B90059BA002DEC8BF084CFCECDDF
:100A5000FCE5F0CBF97818EF2FFFEE33FEED33FD18
:100A6000EC33FCEB33FB10D703994004EB99FB0FFD
:100A7000D8E5E4F9FA227818EF2FFFEE33FEED33D4
:100A8000FDEC33FCC933C910D7059BE99A4007EC4C
:100A90009BFCE99AF90FD8E0E4C9FAE4CCFB227593
:100AA000F010EF2FFFEE33FEED33FDCC33CCC83327
:100AB000C810D7079BEC9AE899400AED9BFDEC9A89
:100AC000FCE899F80FD5F0DAE4CDFBE4CCFAE4C801
:100AD000F922EB9FF5F0EA9E42F0E99D42F0EC64CA
:100AE00080C864809845F022EB9FF5F0EA9E42F0C2
:100AF000E99D42F0E89C45F022E8600FECC313FC4E
:100B0000ED13FDEE13FEEF13FFD8F122E8600FEFB7
:100B1000C333FFEE33FEED33FDEC33FCD8F122ECB2
:100B2000F0A3EDF0A3EEF0A3EFF022A8828583F00E
:100B3000D083D082120B42120B42120B42120B4294
:100B4000E473E493A3C583C5F0C583C8C582C8F028
:100B5000A3C583C5F0C583C8C582C822EC8EF0A4A6
:100B6000CCC5F0CCCDF8EFA4CEC5F02DFDE43CFC17
:100B7000E8A42EC8C5F03DFDE43CFCEFA4FFE5F081
:100B800028FEE43DFDE43CFC22EF4E6012EF6001E4
:100B90000EEDBB010B89828A83F0A3DFFCDEFA2213
:100BA00089F05007F709DFFCA9F022BBFEFCF3092E
:100BB000DFFCA9F022BC000BBE0029EF8DF084FF02
:100BC000ADF022E4CCF875F008EF2FFFEE33FEEC29
:100BD00033FCEE9DEC984005FCEE9DFE0FD5F0E950
:100BE000E4CEFD22EDF8F5F0EE8420D21CFEADF04F
:100BF00075F008EF2FFFED33FD4007985006D5F054
:100C0000F222C398FD0FD5F0EA221212F3FDACF0E8
:100C1000D39FEC9E40329001B812130712158AD36D
:100C2000EF9430EE9475400C9002E77475F0A37465
:100C300030F0800D1212FE1214959002E7F0A3EF2F
:100C4000F0E490023B020CB1121304FFAEF09001ED
:100C5000B8121307FDACF0C39FFFEC9EFED3EF94D8
:100C600010EE942740089002E71215098012121323
:100C700004FFC3ED9FFEEC95F09002E7F0A3CEF0E9
:100C80009002E7E0FFA3E090023BCFF0A3EFF0304B
:100C90000014D3E0942C90023BE09401400F9002AA
:100CA0003D1215098007E490023DF0A3F0E49002A4
:100CB000E7F0A3F09001D3E0604D12137AD39400D3
:100CC000EE6480948040179001A6121583EF9DEE8C
:100CD0009C400B90017DE4F0A37464F0801BD390E2
:100CE000017EE0940090017DE09400400C9001B5FD
:100CF0001213079002E7121472D20A900183740F44
:100D0000F0A374A0F080119001817403F0A374E843
:100D1000F07A00794A12135CD39002E8E0940090D4
:100D200002E7E0648094805003020F4CE0F9A3E0F6
:100D3000FF9001B512131F12139C12137A12159E05
:100D4000E47BB87A88F9F8C3120AD2500A9002E715
:100D50007488F0A374B8F0D3900180E094009001FF
:100D60007FE09400500790001BE0B4201D12137A1E
:100D7000C39496EE648094805010EF9400EE6480EB
:100D80009480403C7C007D0A802B3000339001D35E
:100D9000E07012900244121375C39DEE9C50217CAA
:100DA000027DBC80109001A6121375C39DEE9C506D
:100DB0000F7C027DBC1209369002E7EEF0A3EFF043
:100DC0009001D3E07003020F26900181E07002A32E
:100DD000E06003020F2612137A12159EE54D2FF5DF
:100DE0004DE54C3EF54CE54B3DF54BE54A3CF54AAF
:100DF000054FE54F7002054EC3E55394D0E552947C
:100E0000075003020EC8AE4EAF4FCBEFCB1213CE3E
:100E1000AF4DAE4CAD4BAC4A120A409002E9EEF039
:100E2000A3EFF0C3E5519FFFE5509EFE1232019003
:100E300002EBEEF0A3EFF0D39464EE94005006E5DD
:100E4000514550700D9002E9E0F550A3E0F55102D4
:100E50000EB7D39002EAE095519002E9E095504038
:100E6000281214BC400474148018D3EF943CEE9400
:100E7000004004740A800BD3EF9428EE94004037AE
:100E800074052551F551E4802A1214BC400774EC16
:100E90001215A5801ED3EF943CEE9400400774F623
:100EA0001215A5800ED3EF9428EE9400400974FB30
:100EB0001215A53550F550E4F54DF54CF54BF54AB6
:100EC000F54EF54FF552F553D3E5519400E55094A6
:100ED000004028120F76900208EEF0A3EFF0C31244
:100EE0000F76121594500812153EE4F554800CE567
:100EF00054C39407500512153E0554E5DB20E23F2C
:100F00009001BE121307FFAEF07C007D0F12144D4E
:100F100012137A12159EEB7B101213A29001BE12CF
:100F2000131FF9EE8014E5DB20E2149002E7E0F9EC
:100F3000A3E0FF9001BE12131FC98FF01209E590C4
:100F400001BE12130724A8FFE5F0801D9001B51221
:100F5000131F12146B9001BE12131F12146B900218
:100F6000E8E024A8FF9002E7E03461F99001BB12A9
:100F7000131F12139C229002E8E09551FF9002E7A4
:100F8000E09550FE12320122208A030212F29001F3
:100F900079E07002A3E060030212F2900177E07042
:100FA00002A3E060030212F2900210E07002A3E0DC
:100FB00060030212F212149C60030212F29001D339
:100FC000E070309001C7121307FFAEF09001B51228
:100FD0001307D39FE5F09E40030212F2121434E48B
:100FE00090021CF0A3F012154A90017D12156BF5CA
:100FF000708003757000757110E4F5B2122FD790F0
:101000000220E0F555A3E0F556C208758D20438D0A
:1010100020758D8043A808D2AF758B02758EC820CD
:10102000052412149C701F200B1CE5DB20E21775B1
:101030008AC4200B0DE5DB20E20875870300000061
:101040008006D2088002D208758B11758A5053A889
:10105000F7D3900178E09490900177E09401400EEE
:10106000A3E02470F0900177E034FEF08007E49074
:101070000177F0A3F0D3900184E09490900183E095
:101080009401400EA3E02470F0900183E034FEF060
:101090008007E4900183F0A3F0122FD71214A3125B
:1010A00027B50BEBB406F89001AAE0F572A3E0F5C2
:1010B000739001AEE0F522A3E0F523E5732527FF49
:1010C000E5723526FEC3EF9523F525EE9522F5242E
:1010D000E5272488FFE5263413FED3E5259FE52484
:1010E0009E40048E248F25902E23E4F043890A121B
:1010F00013955380F5438902900206E524F0A3E599
:1011000025F0C3E5569525FFE5559524FE123201DD
:101110008E578F581215B540030212B6AE24AF2574
:101120007C007D10120B5C1215BFAF6FAE6EAD6D03
:10113000AC6C9002E512136AFBD3120AE89002E548
:1011400040171213EC956FFFEE956EFEED956DFD59
:10115000EC956CFC1215BF8007120B2B00000000F1
:10116000E47F607EEAFDFC9002E512136AFBD31275
:101170000AE8400A9002E5120B2B0000EA60121305
:1011800004FFAEF07C007D09120B5C9002E51213A7
:101190006A7B0A1213A21215BF9001D3E07036AE1B
:1011A00055AF56FC7D0912144DE4FCFDEB2525FFDF
:1011B000EA3524121340E47B0A1213AE8E558F5683
:1011C0009002E512131512139C12145D12131F12D4
:1011D000139C0212B612145D12131F12139C90017D
:1011E000B8121307FFAEF09002E5121367FBD3129B
:1011F0000AE850030212C61212F3121495FE1215D9
:101200001140030212C69001B5121307FFAEF07C25
:10121000007D02120B5CC8ECC8EDC0E0EEC0E0EF50
:10122000C0E01212F3121495FEE4FCFDD0E0FBD0F6
:10123000E0FAD0E0F912133BE47B031213AE900105
:10124000B512131F12147A9001B5121307D39430FC
:10125000E5F094754008747575F0301209E5900258
:1012600023E06052121425404D9001B5121307126D
:101270001495FE1232019002E9EEF0A3EFF0900116
:10128000B512130712138395F050101214E4400B9B
:1012900012131CF9E475F0071209AD9001B5121391
:1012A00007FFD312138595F0400CD31214E44006C7
:1012B00012131C1215AC20080D1215B5500812148B
:1012C0009C700302100B900222E004121348E49079
:1012D00002021213D9F090022B120B2B0000000017
:1012E0001213D574C8F09001D47401F090017B12F0
:1012F0001446229001B8E0FBA3E0FAA3E0F912093A
:1013000082FFAEF09001B2E0FBA3E0FAA3E0F902A5
:1013100009829001D5A3A3E0F9A3E0FF9001B8E012
:10132000FBA3E0FAA3E022C8ECC8C9EDC9CAEECA23
:10133000CBEFCBE0FEA3E0FFE4FCFDEB2FFFEA3EAA
:10134000FEED39FDEC38FC22F07E007F077D007B4E
:10135000007A007959120B897A0079607E007F0B40
:101360007D007B00020B89E4FCFDE0F8A3E0F9A31B
:10137000E0FAA3E022E0FCA3E0FD9002E7E0FEA398
:10138000E0FF22FFC3900228E09F900227E0224363
:10139000AB0A5389F55395F55396F522C98FF002A0
:1013A00009E52FFFEA3EFEE93DFDE83CFCE4FAF9E1
:1013B000F8020A40A3F0A37401F0A322E50825E097
:1013C0002428F8E6FE08E622A3E0FEA3E0FBCAEE2E
:1013D000CAE4F9F82290022FE4F0A3F0A3F0A322CC
:1013E000F09001797402F0A37458F022E0FCA3E0BD
:1013F000FDA3E0FEA3E022902E12E0FEA3E0FF7C1E
:10140000007D0A120924EF245CFFEE341222CAEE9A
:10141000CAE0FEA3E0FFEB2FFFEA3EFEE433FDE46B
:1014200033FC780122900227E0FEA3E0FFD3940072
:10143000EE9400227F087A0179D57E007D007B0141
:10144000020B89900244E4F0A374C8F022120B5CF2
:10145000C8ECC8C9EDC9CAEECACBEFCB229002E5F1
:10146000A3A3E0F9A3E0FF9001B222F9E4F5F002B2
:1014700009E5FFE5F0F0A3EFF022F9EE8FF00209A5
:10148000E5E0FCA3E0FDC3EF9DFF22E4F50CF50BC6
:10149000F50AF50922C39FFFE5F09E2290001BE0AC
:1014A000642022E49001AAF0A3F09001AEF0A3F032
:1014B000FB22D3EF9428EE64809480229002EBE02C
:1014C000FEA3E0FFD39450EE940022AB0CAA0BA92C
:1014D0000AA809D3020AE89002E8E0940A9002E719
:1014E000E09400229002EAE0940A9002E9E094007D
:1014F0002225E02414F582E43402F583229001B021
:10150000E0FFA3E090021ACF227427F0A37410F03A
:1015100022D3900245E09F900244E09E22E03CF0FE
:10152000902E20E4F00FEF22900206E566F0A3E58E
:1015300067F02225E02428F8A60D08A60E229002C6
:10154000E7E550F0A3E551F022E490017FF0A3F02D
:10155000229001A6E4F0A37496F022F9746175F06C
:10156000A80209E590003A7410F022F0A3F090016F
:1015700087F0A3F022902E207409F022E0FEA3E071
:10158000780222E0FCA3E0FDD322FFC3ED9FFFEC35
:1015900095F0FE22C3EF9464EE6480948022EE33D3
:1015A00095E0FDFC222551F55174FF22F974FF7579
:1015B000F0F90209ADC3E5589571E5579570229091
:1015C00002E5020B1F1214A31227B50BEBB406F8A9
:1015D000E527240CFFE52634FEFEC39001ABE09F17
:1015E0009001AAE09E5015900210E07002A3E070F6
:1015F0001290021004F0A374F4F08007E49002103B
:10160000F0A3F090020212142840337C007D0312F4
:101610000B5C9001AE1213277802120AF99001AE0A
:10162000EEF0A3EFF0900204E0FEA3E0FB9001AA2D
:1016300012140E120AF99001AAEEF0A3EFF0900135
:10164000ABE02527FF9001AAE03526FE9001AE12FF
:101650001481EE9CFE9002EDF0A3EFF0E5272488C4
:10166000FBE5263413FAD3EF9BEE9A40089002ED87
:10167000EAF0A3EBF09002EDE0FFA3E0900200CFD0
:10168000F0A3EFF0A3ECF0A3EDF09001AAE0FFA32C
:10169000E0900204CFF0A3EFF0D390020DE09400AD
:1016A00090020CE0940040719001D3E0600F900133
:1016B000B5121307C394A0E5F0940F5009E490020B
:1016C0000AF0A3F08053D390020BE0940090020A3A
:1016D000E09400403090020CE0FEA3E0FF12185F9F
:1016E00012145690020AE0FEA3E0FF7C007D031274
:1016F0000924EB2FFFEA3EFEEF7802CEC313CE1390
:10170000D8F9FF800C90020CE0FEA3E0FFC3121892
:101710005F90020AEEF0A3EFF0D390020BE0940A80
:1017200090020AE0940090020E40097428F0A3741D
:1017300046F080077407F0A3740FF0900200E0FFFA
:10174000A3E090020CCFF0A3EFF09002EDE0FEA337
:10175000E0FF1224CB900206EEF0A3EFF090001B06
:10176000E0B42003121358900206E0FEA3E0FFE469
:10177000FCFDE5632FF563E5623EF562ED3561F54D
:1017800061EC3560F5600565E56570020564C3E5EB
:101790006994E8E5689403402AAE64AF65CBEFCB6B
:1017A0001213CEAF63AE62AD61AC60120A408E66BA
:1017B0008F67E4F563F562F561F560F564F565F54D
:1017C00068F569D3E5679400E5669400407490027B
:1017D00007E09567FF900206E09566FE9002EFF045
:1017E000A3EFF090020EE0FDFBC3E49BFBE494004A
:1017F000FAD3EF9BEA6480F8EE648098401BEDFF1B
:101800009002F0E09F7480F89002EFE064809850BE
:1018100008121528E4F56A80299002EFE0FEA3E0A3
:10182000FF12320190020FE0FDD3EF9D7480F86E3D
:10183000984003756A03E56AC3940350051215289E
:10184000056A900206E0F548A3E0F54978287C0097
:101850007D007B007A00792A7E007F200208FE90BE
:101860000201E09FFF900200E09EFE1232012290F2
:10187000022B12136AFB90025012133390022B12A8
:101880000B1F900230E004F0700690022FE004F08D
:10189000900231E07002A3E06003021AAF90022BC5
:1018A0001213ECFFEEC0E0EFC0E01213C8D0E0FF6F
:1018B000D0E0FE120A4090022B120B1F90022BA3C5
:1018C000A3E0FFA3E0900229CFF0A3EFF0A3120B57
:1018D0002B000000001213D574C8F0900177E0705F
:1018E00002A3E06003021AAF900233E07002A3E0AB
:1018F0006003021AAF9001D3E070030219AB9002AB
:1019000025E0FEA3E0FF4E7022900229E0FDA3E057
:10191000900225CDF0A3EDF09001B5121307FD90D4
:101920000227E5F0F0A3EDF00219B7900229121496
:1019300081EE9CFE12320190023512131F12147AAE
:10194000900223E07026900235121307C3940FE52E
:10195000F09400500F9001B5121307FF9002271268
:10196000147380239002237401F0801B90023512BF
:101970001307C39402E5F09400500CE49002251282
:1019800013D9F0900223F0900229E0FEA3E0FFD3E8
:10199000900226E09F900225E09E4007E4900224FA
:1019A000F080149002247401F0800CE4900225125F
:1019B00013D9F0900223F0900223E07003021AAFD3
:1019C0001214255003021AAF9001B5121307121416
:1019D00095FE1232019002E7EEF0A3EFF0A3E4F0DF
:1019E000A37464F09001B5121307D39494E5F094B6
:1019F00011400A9002E97403F0A37420F09002E70A
:101A0000E0FFA3E0900239CFF0A3EFF09001B51210
:101A10001307FFAEF0D31213859E40129002E91215
:101A200015839002E8E09D9002E7E09C501A1213A3
:101A3000849E50439002E9E0FEA3E0FF9002E8E0BC
:101A40009F9002E7E09E402FE4900223F090022551
:101A5000F0A3F09001B512130712138395F09002D2
:101A60003374015007F0A3742CF08005F0A3749038
:101A7000F0E4900224F0229001B5121307FFD31274
:101A8000138595F0400CD31214D7400612131C1284
:101A900015AC9001B512130712138395F050101274
:101AA00014D7400B12131CF9E475F0071209AD228C
:101AB00090021CE0FEA3E0FFC39404EE9400502FBC
:101AC0009001B0E0FCA3E0FDEF25E0FFEE33FE74F3
:101AD000142FF58274023EF583ECF0A3EDF0900232
:101AE0001DE004F0700690021CE004F0021C2E9031
:101AF00002EF7401F09002EFE0FF1214F1E0FCA39A
:101B0000E0FDEF25E02412F582E43402F583ECF0E9
:101B1000A3EDF09002EFE004F0E0B404D89001D31C
:101B2000E07003021BDA9001B8121307FFAEF090C9
:101B300001B01215839FEC9E5003021C27ED9FFFFE
:101B4000EC9EFED3EF94F4EE94015003021C27A305
:101B500012130712158A9002F0F0A3EFF01232016F
:101B6000121594505DE49002F2F0A3F09002F0E0C0
:101B7000FEA3E0FF1232011214B24025D39002F10D
:101B8000E094009002F0E0648094809002F24008BB
:101B9000E4F0A37405F0801074FFF0A374FBF080F0
:101BA00007E49002F2F0A3F0121304FF9002F3E0B6
:101BB0002FFE9002F2E035F090021AF0A3CEF00270
:101BC0001C2E1214FDF0A3EFF0900240E004F07020
:101BD0000690023FE004F0021C2E121304FF900155
:101BE000B0121481E5F09CFE123201C31214B350FE
:101BF000369001B8121307FFC39001B1E09FFF9028
:101C000001B0E095F0FE123201C3EF9414EE64804F
:101C1000948050059001B880039001B2121307FF21
:101C200090021AE5F080031214FDF0A3EFF0900289
:101C3000EB120B2B00000000E49002EFF09002EF9B
:101C4000E0FFD390021DE09F90021CE09400401D35
:101C50009002EB12136AFBA3E01214F112133390FB
:101C600002EB120B1F9002EFE004F080D09002EB29
:101C70001213ECFFEEC0E0EFC0E090021C1213C99B
:101C8000D0E0FFD0E0FE120A409002EB120B1F9052
:101C900002EBA3A3E0FEA3E0FF22C0E0C083C0826A
:101CA000C0D0D2AF90018CE004F0E5772401F57745
:101CB000E43576F576E43575F575E43574F574D369
:101CC000900178E09400900177E09400400CA3E04C
:101CD00024FFF0900177E034FFF0D390017AE09494
:101CE00000900179E09400400CA3E024FFF0900103
:101CF00079E034FFF0D390017CE0940090017BE028
:101D00009400400CA3E024FFF090017BE034FFF04E
:101D1000D390017EE0940090017DE09400400CA3FC
:101D2000E024FFF090017DE034FFF0D3900180E0EB
:101D3000940090017FE09400400CA3E024FFF09019
:101D4000017FE034FFF0D390018AE0940090018994
:101D5000E09400400CA3E024FFF0900189E034FF00
:101D6000F0D3900188E09400900187E09400400C4B
:101D7000A3E024FFF0900187E034FFF0D3900182CC
:101D8000E09400900181E09400400CA3E024FFF077
:101D9000900181E034FFF0C3E56994E8E5689403BD
:101DA00050080569E56970020568C3E55394D0E5FC
:101DB00052940750080553E55370020552D3900220
:101DC00032E09400900231E09400400CA3E024FF44
:101DD000F0900231E034FFF0D3900234E0940090B0
:101DE0000233E09400400CA3E024FFF0900233E0C3
:101DF00034FFF0D3900211E09401900210E09400BF
:101E0000400CA3E024FFF0900210E034FFF0D390E8
:101E10000184E09400900183E09400400CA3E0244E
:101E2000FFF0900183E034FFF0D390023EE0940095
:101E300090023DE09400400CA3E024FFF090023DAE
:101E4000E034FFF0D3900104E09401900103E094AA
:101E500000400CA3E024FFF0900103E034FFF0D039
:101E6000D0D082D083D0E0327E007FFF7D007B0126
:101E70007A007904120B899002F77400F0A37404BD
:101E8000F090012A7401F0A37400F0A374B8F090EC
:101E900001307401F0A37400F074AC122EB574001C
:101EA000F0A37494F090012D7401F0A37400F0A3DA
:101EB00074C6F09001367401F0A37400F074D2126D
:101EC0002EB57400F0A3741F122EB67401F0A37423
:101ED00002F0902DE0E493FF9002F7E0FCA3E0FD18
:101EE000F5828C83A3EFF0900002E0FFED24041252
:101EF0002E9B900001E0FFED2405122E9B90000325
:101F0000E0FFED2406122E9B902DE2E493FFED24DA
:101F100012122E9B902DE3E493FFED2414122E9BBE
:101F200090013F7401F0A37400F0A3743CF0E4FF4F
:101F300075F002EFA42401F582E5F0342EF583E478
:101F400093FE74542FF582E43400F583EEF0EF2510
:101F5000E02423F582E4342EF583E493FE122EBDB3
:101F6000EEF0122EBDE0FEEF25E02422F582E434EF
:101F70002EF583E4932420F582E4342EF583EEF0ED
:101F80000FEFB411AB902F56E0900058F0902F5601
:101F9000E090006AF09000FF7401F09000FEF09075
:101FA000003A7410F090001BF0900028F0A3742009
:101FB000F09001777407F0A374D0F02212148BF51F
:101FC00013F51485280F852910852811852912F508
:101FD000081213BCFFD3E5129FE5119E40078E1136
:101FE0008F12850814C3E5109FE50F9E50078E0FD2
:101FF0008F108508130508E508B410D5E4F50DF534
:102000000EF508E51465086034E5136508602EE5F3
:102010000E450D7010E50825E02428F8E6F50D08BA
:10202000E6F50E80181213BC250EFFE50D3EFEEFFF
:102030002401FFE43EC313F50DEF13F50E0508E58B
:1020400008B410BF900220E50DF0A3E50EF0E514F2
:10205000C3940D5005E514121533E513C3940D50C8
:1020600005E51312153312148BF5081213BCFFC3C8
:10207000E50E9FFFE50D9EFE1232011214B2400FD5
:10208000E4FCFDE50C250EF50CE50B350D800F127B
:1020900013BCFFE4FCFDE50C2FF50CE50B3EF50B46
:1020A000ED350AF50AEC3509F5090508E508C3948C
:1020B0001040B8AF6FAE6EAD6DAC6C1214CB401A61
:1020C000E50C956FF50CE50B956EF50BE50A956D36
:1020D000F50AE509956CF509800312148BE47F601D
:1020E0007EEAFDFC1214CB400BE4750C60750BEA24
:1020F000F50AF509AE0BAF0C22C0E0C083C082C068
:10210000D075D01812315CD2AFE5DB30E419D20BB8
:10211000C207E5DB30E10280309002F6E5DFF090A7
:1021200002F9E4F00221F9E5DB30E511D2053007D0
:1021300004C2078002C20B1231630221F9C207E513
:10214000DB30E140E5DB30E0109002FAE0FF04F024
:10215000123146E0F5DF0221F99002FAE0FFB408FF
:1021600019208A16D28A9001A47401F09002F7E037
:10217000FCA3E0240712314CE4F0EF641A707AD229
:10218000060221F99002F9E0700EA3E5DFF090025B
:10219000F97401F0D20780619002FAE0902F389331
:1021A000FFB4FF089002F6E5DFF08047EF640F70A0
:1021B000299002FAE0FFA3E0FCA3E0FD12314BE01E
:1021C000540FF09002FAE0FF04F0ED12314BE0FF03
:1021D000E5DF54F0FEEF4EF0801F9002FAE0FF12B0
:1021E0003146E5DFF0EFB4240A9001797401F0A3E1
:1021F00074F4F09002FAE004F075DBFFD0D0D082E6
:10220000D083D0E0329001D3E06006121434022271
:10221000ED9001D512136AFBE9C0E0EAC0E0EBC023
:10222000E0121304FFE4FCFDD0E0FBD0E0FAD0E0C4
:10223000F9EB2FFFEA35F01213409001D5120B1F76
:102240009001DAE004F070069001D9E004F090010A
:102250007BE07002A3E060030222F79001D5121325
:10226000ECFFEEC0E0EFC0E01213C8D0E0FFD0E01A
:10227000FE120A409001D5120B1F9001B8121307ED
:102280002432FFE435F0FE9001D5121367FBD31220
:102290000AE84039900177E07002A3E0702F200A2D
:1022A0002C9001DCE004F070069001DBE004F0D338
:1022B0009001DCE094059001DBE09400401E1213D5
:1022C0001212139CE49001DBF0A3F0800F121312A2
:1022D00012139CE49001DBF0A3F0C20A9001D51226
:1022E0000B2B00000000E49001D9F0A3F090017BDB
:1022F0007402F0A374BCF022900266E0FEA3E0FF3B
:10230000C390024FE09FFF90024EE09EFE1232010A
:10231000D3EF940AEE648094804020900246120B22
:102320002B00000000E490024AF0A3F0900266E067
:10233000FFA3E090024ECFF0A3EFF0900246122BE5
:10234000AC900266122B66900246120B1F90024B55
:10235000E004F0700690024AE004F090024AE0FEC9
:10236000A3E0FFD3940AEE94004031CBEFCBCAEE4A
:10237000CAE4F9F8900246122BA0120A4090024CCF
:10238000EEF0A3EFF0A3EEF0A3EFF0900246120BF5
:102390002B00000000E490024AF0A3F0D390024D1D
:1023A000E0940090024CE094004030900250E0FE37
:1023B000A3E0FF7C007D03120B5CC8ECC8C9EDC92B
:1023C000CAEECACBEFCB90024C122B66E47B04FA28
:1023D000F9F8120A40900250EE800B900266E0FF7E
:1023E000A3E0900250CFF0A3EFF0229002EBEFF0C9
:1023F000122E8C7402F0A3E4F0902E2204F0A3E0DD
:102400004401F0E49002ECF0A3F09002ECE0FEA3B3
:10241000E0FFC3940AEE940040030224C8EF94083E
:10242000EE940040067E007F0180199002ECA3E04C
:1024300004FFE47E02C8EFC8088006CEA2E713CEF0
:1024400013D8F8FF9002EEEEF0A3EFF0902E207478
:1024500009F0902E20E030E2F99002EBE0FF75F0F9
:1024600002A42400122E92E0FCA3E0FD902E20E4B2
:10247000F0D3ED94FEEC940740179002EEE0FCA33D
:10248000E0FD75F002EF122E8FEC8DF012096C80DA
:10249000269002EBE0122E8CC083C082E0FEA3E007
:1024A000FF9002EEE0FCA3E0FDC3EF9DFFEE9CD0A9
:1024B00082D083F0A3EFF09002EDE004F07006907C
:1024C00002ECE004F002240A7F00229002F1EEF018
:1024D000A3EFF0E4FFFEFDFCAB5EAA5DA95CA85B88
:1024E000C3120AE89002F17010E0FEA3E0FFE48F4F
:1024F0005E8E5DF55CF55B802FE0FEA3E0FFEF25CF
:102500005EFFEE355DFEE4355CFDE4355BFCEF24FB
:1025100001FFE43EFEE43DFDE43CFC7801120AF9D3
:102520008F5E8E5D8D5C8C5B055FE55FD3940A40AA
:1025300011855D59855E5AE4F55EF55DF55CF55BE8
:10254000F55FD3E55A9400E559940040459002F2B6
:10255000E0955AFF9002F1E09559FE123201C3EF67
:10256000940AEE64809480AE59AF5A50117C007D7D
:1025700003120B5C9002F112132778028009CBEF53
:10258000CB9002F112140E120AF99002F1EEF0A3B0
:10259000EFF09002F1E0FEA3E0FF227F917A017953
:1025A000B012143A9001B27401F0A37400F07444B4
:1025B0001213B47400F074461213B47400F0A374D0
:1025C000481213B57400F0A374321213B57400F0FE
:1025D000A3742E1213B57400F0A3742CF09001CDE7
:1025E0007401F0A37400F0A37426F0900235740116
:1025F000F0A37400F0A37484F09001D07401F0A3F0
:102600007400F0A3741CF09001C47401F0A3740072
:10261000F0A374361213B57400F0A3742A1213B524
:102620007400F0A37438F01214439001C412131F05
:10263000F9E475F0C81209E59001C712131FF9E417
:1026400075F0641209E51215519001CA12131FF9B1
:10265000E475F0960209E59002E7EEF0A3EF12139D
:10266000489002E7E07002A3E06003122977E4904B
:10267000021CF0A3F07F1012300B1213E1A37402BE
:10268000F0A374BCF09001B0E0F9A3E0FFA3121333
:102690001F12139C9001B512131F12146B9001BBF3
:1026A00012131F12155B9001BE12131F12146B90B0
:1026B00001C112131F12155B121564E49001D3F0CF
:1026C0009001D5120B2B000000009001D91213D8F5
:1026D000F09001B012131712139CE49001D4F09003
:1026E000018912156B900183F0A3F0FE7F12FD7B30
:1026F000017A027923120B899001CD1213079002FF
:102700002912147290023112144622D3900178E0FB
:102710009400900177E0940040030227B430002534
:1027200090023DE07002A3E090024460051215099A
:102730008007741BF0A37458F09001A67417F0A3DF
:102740007470F080061214431215519001B51213E3
:1027500007FFAEF012151140139001D3E0601ED3B5
:102760009001A7E09F9001A6E09E501190017FE0AC
:102770007002A3E070279001D304F0802090001B2A
:10278000E0B42005121549800690017F121446E43A
:102790009001D3F090017DF0A3F01215649001D365
:1027A000E06011900028E090003AB410047410F03A
:1027B000227420F02212138FE49001ACF0A3F09069
:1027C0000242F0A3F0FF1231A0121575902E20E006
:1027D00030E2F9902E02E0FCA3E0FD9001ADE02D87
:1027E000F09001AC12151DB403DCE4FF1231B912F4
:1027F0001575902E20E030E2F9902E0EE0FCA3E05B
:10280000FD900243E02DF090024212151DB403DC4E
:102810009001AC12157CCEC313CE13D8F9FF9001F2
:10282000ABE02FF09001AAE03EF090024212157C3E
:10283000CEC313CE13D8F9FF9001AFE02FF0900173
:10284000AEE03EF0902E23E4F0902E20F043890A73
:102850001213955380F522C10B41019C0041019D4B
:10286000004101A300410199004101A1004201037F
:1028700003E84101A400C101C1034101A2004101DB
:102880009800C102C100C1044102F9004102FA00EE
:102890004202F40000C105C107C1064102F6104121
:1028A00001A5004101A910C10AC10941024100026C
:1028B000260000046C00000000016B004101A8101C
:1028C0004102530004740000000041025200410222
:1028D000D60042026600004402D700000000420217
:1028E0005000004102DB0000787FE4F6D8FD7581DE
:1028F00077022932020000022FA3E493A3F8E493A5
:10290000A34003F68001F208DFF48029E493A3F8E2
:102910005407240CC8C333C4540F4420C883400454
:10292000F456800146F6DFE4800B01020408102013
:102930004080902857E47E019360BCA3FF543F3051
:10294000E509541FFEE493A360010ECF54C025E0B7
:1029500060A840B8E493A3FAE493A3F8E493A3C86F
:10296000C582C8CAC583CAF0A3C8C582C8CAC58300
:10297000CADFE9DEE780BE7F011230FA902E12E056
:10298000FEA3E024E0FFEE34FC9002E9F0A3EFF0B8
:1029900012138F122FD71231A0902E227401F01231
:1029A0001575902E20E030E2F9902E0212157CCEA3
:1029B000C313CE13D8F9FF7C007D121209248E2692
:1029C0008F277D10120B5CEF24E0F56FEE34B1F52C
:1029D0006EED34FFF56DEC34FFF56C902E20E4F0D5
:1029E00043890A1213955380F5902E23F09001A984
:1029F000E0900021F01213F7F99001D012131FC9D3
:102A00008FF00209E5900198E014601B14604324E4
:102A100002705D9001A2E0B4010A900198122A713F
:102A2000D204D200C202227F02122F00EF60077F81
:102A30000212320DC2049001A2E070349001987429
:102A400002F0D202C204C2007F0312320D7F0302E1
:102A500030CF7F03122F00EF60167F0312320D90EC
:102A600001A2E09001987003F08003122A71C20263
:102A7000227401F07F0212320D7F021230CF2275D4
:102A80008A10E4F5B275B6FF75B7FF75B2A243B20E
:102A9000011231F49002DB7401F0E5A830E203008A
:102AA00080F8900252E0FFE4FCFDFE122B96122B00
:102AB000A07808120B0C122B96122BAC9002D6E0C9
:102AC000FFEB4FFFEAFEE9FDE8FCA3122B99A3A35D
:102AD000E0FFA3E0900266CFF0A3EFF0758A5053B9
:102AE0008AEF538BEF53A8FBE4F5B2123186022232
:102AF000F8900103E07004A3E0640170119001A458
:102B0000E07004D28A04F0E4900103F0A3F0900096
:102B10003AE0FC9001A8E06C603D90003AE0FE9045
:102B200001A8F090000BE09001A1F0540FF0EEB47A
:102B30002005E04420800AECB4100B9001A1E04491
:102B400010F090000BF0C28AE49001A4F090010311
:102B50007403F0A374E8F022CBEFCB74DC2BF58286
:102B6000E43402F58322E0FEA3E0FFE4FCFDEB2F5A
:102B7000FFEA3EFEED39FDEC38FC22FEEB25E024B9
:102B800054F582E43402F58322EB25E02434F58207
:102B9000E43431F583229002D7120B1F9002D72222
:102BA000E0FCA3E0FDA3E0FEA3E0FF22E0F8A3E049
:102BB000F9A3E0FAA3E0FB22200906200203300477
:102BC00009E4FFFE122657C20922900187E0700235
:102BD000A3E0600512149C7037200003122EC87FFA
:102BE0000112300B121AB09002E5EEF0A3EFF07B69
:102BF000017A0279E5122D679002E5121462121330
:102C00001F12139C120C0A12270B12186F122205A6
:102C1000122AF1229002E57408F0A3E4F0A3743FB5
:102C2000F0A374DFF0E4FDFCF912315C009002E5E2
:102C3000E0FEA3E02DF582EE3CF583E493FF69F915
:102C40000DBD00010CBC37E5BDDFE29002E712319B
:102C500053E493699002F77009123153A3740BF097
:102C60008006123153A3E4F01231630022122EAD1C
:102C7000F5828E83A3E0B4AA03122C14122EADFFAA
:102C8000122EA4E0B41008EF122EA4E4F0D2091220
:102C90002EADFF241B122EA6E0700DEF241C122E69
:102CA000A6E0B41003122D1C122EAD2413122EA672
:102CB000E0FFB410069001A27401F0EFB42005E427
:102CC0009001A2F022900176E024FE6013146023AC
:102CD000146027240370449001767402F0120803F4
:102CE0007F017E001226579001767403F0E4900174
:102CF00099F0229001767404F022122A05122E44D3
:102D0000122A05900210E07004A3E06401700C9098
:102D10000210F0A3F09001767402F02212315C00F0
:102D2000122DE4E4F5F275F30875EEFF75EF3F75CB
:102D3000EA81F5F675EB0700E5EC30E7FBE4F5EC2E
:102D40009002F7E0FEA3E0FF241BF582E43EF5834A
:102D5000E5F3F0EF241CF582E43EF583E5F2F0752F
:102D6000EB3012316300229002E7EBF0A3EAF0A30C
:102D7000E9F0900179E07002A3E070339001D4E0B3
:102D8000602DE49001D41213E09002EA7401F07F08
:102D90000112300B121AB09002E712131F12147AAC
:102DA0009002EAE004F0E0C3941040E312154922D7
:102DB000E4F5B2F5BA758D20438D20538D7F53AA6B
:102DC000F7F58BE5DB20E211200B0EE4F58A758721
:102DD00003000000758A50D209758B112200000093
:102DE0000B05AB6674AA7583F5758255A574557588
:102DF00083FA7582AAA574A57583F5758255A522F7
:102E000001910201071A0AB00BB60CFF090008FF76
:102E10000D770E060F0404011112120A1307141085
:102E200010100111020607100A100B800CFF090296
:102E300008FF0DF40E040F04040111101204130313
:102E40001420102012149C7029900241E07003128B
:102E500013E19002417401F0900029E0B4200812BF
:102E60002BB8120F888003122DB090018B7401F0E3
:102E70008017E4900241F0900029E0B42003122B67
:102E8000B890018BE06002E4F002318675F002A494
:102E90002410F582E5F0342EF58322F582E43CF52A
:102EA00083EFF022241AF582E43EF583229002F7A4
:102EB000E0FEA3E022A3F0A37401F0A32274662F26
:102EC000F582E43400F58322300634C206902E12D7
:102ED000E0FFA3E09002E7CFF0A3EFF0E4FF1230B1
:102EE000FA1213F7FE9001D012131F12147A9002F7
:102EF000E7E0FFA3E0902E12CFF0A3EF1213E02241
:102F0000122B58E0602FE577FFE576122B7BE0FC73
:102F1000A3E0FDD39FEC9E501CC3EF9DFFEE9CFEF3
:102F2000122B89C37401939FE4939E4008122B5B7C
:102F3000E4F07F01227F002200000000FFFFFFFF7E
:102F40000000FFFFFFFFFFFFFFFFFF00FF0000008B
:102F5000FFFF000000FFFFFFFFFFFFFF000000007A
:102F6000FFFFFFFFFFFFFFFFFFFF00000000758A6C
:102F700050538AEFE4F58F9000027411F090000135
:102F80007422F09000037433F0E4F5AB75AC0F7568
:102F900089FF75913FF595F592D28A9001A404F0CE
:102FA000D20C2253A87F122F6E1231E71230A412D6
:102FB00031D243A880122A7F9000FFE0600B90017D
:102FC000767401F0E49000FFF012316A122C6D1259
:102FD0002CC5122A7F80E1902E23E4F0FF74542F39
:102FE000F582E43400F583E0FE75F002EFA42400DE
:102FF000F582E5F0342EF583E4932420F582E43461
:103000002EF583EEF00FEFB411D3229002EBEFF028
:10301000122FD7E49002ECF09002EBE0FFA3E0C3A4
:103020009F500B1215C59002ECE004F080EA902E40
:1030300020E4F0121FBC9001B0EEF0A3EFF022E408
:10304000FEE4FFEF75F003A42468F582E43402F592
:1030500083E5822EF582E43583F583E4F00FEFB447
:103060000AE10EEEB403DA7F099002DCE4F0A3DF9C
:10307000FC22C0E0C083C0829002DBE0600DE4F07F
:10308000538B7F758B11438B088012538B7F53A812
:10309000FBE5B5900252F0E5B49002D6F0D082D0B4
:1030A00083D0E0329002F7E0FFA3E09002FBCFF084
:1030B000A3EFF0E4F5DA75DA4043DA2075D740750E
:1030C000DA5875D90143A80275B80475F8042212BC
:1030D0002B58E060037F0122122B5B7401F0122B4E
:1030E00089E493FE740193FFEF2577FFEE357612A6
:1030F0002B7BEEF0A3EFF07F0022CDEFCD12138FEC
:10310000122FD7ED60081231B97F071223EB12316D
:10311000A07F011223EB43890A1213955380F522F5
:1031200001F40028002801F4009603E801F403E804
:103130001770006403E8003202580258012C01F4B1
:1031400003E8271000C8A3E0FCA3E02FF582E43CCD
:10315000F58322E0FEA3E0F5828E8322758A105368
:103160008AEF22758A50538AEF22E4FF30051690C9
:1031700002F7E0FCA3E0F5828C83E0FE54F0FFEE62
:10318000540FF0C20522E5B230E005E5A820E40FB7
:1031900075B28E75B6F9E4F5B743B20143A81022B3
:1031A000902E217491F0902E247401F0902E2774AB
:1031B0001AF0902E237402F022902E217411F090B8
:1031C0002E247422F0902E277405F0902E23748004
:1031D000F0227E007F0A7D007B017A027946120B85
:1031E0008912081602303F121E6812259B90017644
:1031F0007401F022538B7F758B10438B0843A80416
:1032000022EE30E707C3E49FFFE49EFE2274DC2F2A
:10321000122B5EE4F022000000000000000000001D
:10322000000000000000000000000000000000009E
:10323000000000000000000000000000000000008E
:10324000000000000000000000000000000000007E
:10325000000000000000000000000000000000006E
:103FD0000000000000000000000000000000005B86
:103FE00000000000000000000000000000000000D1
:103FF00000000000000000000000000000000000C1
:00000001FF
